{
	"contractName": "SolnSquareVerifier",
	"abi": [
		{
			"inputs": [
				{
					"internalType": "address",
					"name": "verifierAddress",
					"type": "address"
				},
				{
					"internalType": "string",
					"name": "name",
					"type": "string"
				},
				{
					"internalType": "string",
					"name": "symbol",
					"type": "string"
				}
			],
			"payable": false,
			"stateMutability": "nonpayable",
			"type": "constructor",
			"signature": "constructor"
		},
		{
			"anonymous": false,
			"inputs": [
				{
					"indexed": true,
					"internalType": "address",
					"name": "owner",
					"type": "address"
				},
				{
					"indexed": true,
					"internalType": "address",
					"name": "approved",
					"type": "address"
				},
				{
					"indexed": true,
					"internalType": "uint256",
					"name": "tokenId",
					"type": "uint256"
				}
			],
			"name": "Approval",
			"type": "event",
			"signature": "0x8c5be1e5ebec7d5bd14f71427d1e84f3dd0314c0f7b2291e5b200ac8c7c3b925"
		},
		{
			"anonymous": false,
			"inputs": [
				{
					"indexed": true,
					"internalType": "address",
					"name": "owner",
					"type": "address"
				},
				{
					"indexed": true,
					"internalType": "address",
					"name": "operator",
					"type": "address"
				},
				{
					"indexed": false,
					"internalType": "bool",
					"name": "approved",
					"type": "bool"
				}
			],
			"name": "ApprovalForAll",
			"type": "event",
			"signature": "0x17307eab39ab6107e8899845ad3d59bd9653f200f220920489ca2b5937696c31"
		},
		{
			"anonymous": false,
			"inputs": [
				{
					"indexed": true,
					"internalType": "address",
					"name": "triggedEventAddress",
					"type": "address"
				},
				{
					"indexed": false,
					"internalType": "bool",
					"name": "newValue",
					"type": "bool"
				}
			],
			"name": "PausedAndUnpaused",
			"type": "event",
			"signature": "0xc39e7237bfff8744cf3c13bd4123d4542cd1803eebff9b19bb09ea990a48d93e"
		},
		{
			"anonymous": false,
			"inputs": [
				{
					"indexed": false,
					"internalType": "uint256",
					"name": "solutionIndex",
					"type": "uint256"
				},
				{
					"indexed": false,
					"internalType": "address",
					"name": "solutionAddress",
					"type": "address"
				}
			],
			"name": "SolutionAdded",
			"type": "event",
			"signature": "0x078793128cefb19aac38a33f9e5df39f67716907f6d747e8065545699e0b2b8d"
		},
		{
			"anonymous": false,
			"inputs": [
				{
					"indexed": false,
					"internalType": "uint256",
					"name": "tokenId",
					"type": "uint256"
				},
				{
					"indexed": false,
					"internalType": "address",
					"name": "to",
					"type": "address"
				}
			],
			"name": "TokenMint",
			"type": "event",
			"signature": "0xcae919fa60d0c9867c5b3e0a9529934bca78c09d353736e3327f74837594adc5"
		},
		{
			"anonymous": false,
			"inputs": [
				{
					"indexed": true,
					"internalType": "address",
					"name": "from",
					"type": "address"
				},
				{
					"indexed": true,
					"internalType": "address",
					"name": "to",
					"type": "address"
				},
				{
					"indexed": true,
					"internalType": "uint256",
					"name": "tokenId",
					"type": "uint256"
				}
			],
			"name": "Transfer",
			"type": "event",
			"signature": "0xddf252ad1be2c89b69c2b068fc378daa952ba7f163c4a11628f55a4df523b3ef"
		},
		{
			"anonymous": false,
			"inputs": [
				{
					"indexed": true,
					"internalType": "address",
					"name": "oldOwner",
					"type": "address"
				},
				{
					"indexed": true,
					"internalType": "address",
					"name": "newOwner",
					"type": "address"
				}
			],
			"name": "TransferOwnership",
			"type": "event",
			"signature": "0x5c486528ec3e3f0ea91181cff8116f02bfa350e03b8b6f12e00765adbb5af85c"
		},
		{
			"constant": false,
			"inputs": [
				{
					"internalType": "bytes32",
					"name": "_myid",
					"type": "bytes32"
				},
				{
					"internalType": "string",
					"name": "_result",
					"type": "string"
				}
			],
			"name": "__callback",
			"outputs": [],
			"payable": false,
			"stateMutability": "nonpayable",
			"type": "function",
			"signature": "0x27dc297e"
		},
		{
			"constant": false,
			"inputs": [
				{
					"internalType": "bytes32",
					"name": "_myid",
					"type": "bytes32"
				},
				{
					"internalType": "string",
					"name": "_result",
					"type": "string"
				},
				{
					"internalType": "bytes",
					"name": "_proof",
					"type": "bytes"
				}
			],
			"name": "__callback",
			"outputs": [],
			"payable": false,
			"stateMutability": "nonpayable",
			"type": "function",
			"signature": "0x38bbfa50"
		},
		{
			"constant": false,
			"inputs": [
				{
					"internalType": "address",
					"name": "to",
					"type": "address"
				},
				{
					"internalType": "uint256",
					"name": "tokenId",
					"type": "uint256"
				}
			],
			"name": "approve",
			"outputs": [],
			"payable": false,
			"stateMutability": "nonpayable",
			"type": "function",
			"signature": "0x095ea7b3"
		},
		{
			"constant": true,
			"inputs": [
				{
					"internalType": "address",
					"name": "owner",
					"type": "address"
				}
			],
			"name": "balanceOf",
			"outputs": [
				{
					"internalType": "uint256",
					"name": "",
					"type": "uint256"
				}
			],
			"payable": false,
			"stateMutability": "view",
			"type": "function",
			"signature": "0x70a08231"
		},
		{
			"constant": true,
			"inputs": [],
			"name": "baseTokenURI",
			"outputs": [
				{
					"internalType": "string",
					"name": "",
					"type": "string"
				}
			],
			"payable": false,
			"stateMutability": "view",
			"type": "function",
			"signature": "0xd547cfb7"
		},
		{
			"constant": true,
			"inputs": [
				{
					"internalType": "uint256",
					"name": "tokenId",
					"type": "uint256"
				}
			],
			"name": "getApproved",
			"outputs": [
				{
					"internalType": "address",
					"name": "",
					"type": "address"
				}
			],
			"payable": false,
			"stateMutability": "view",
			"type": "function",
			"signature": "0x081812fc"
		},
		{
			"constant": true,
			"inputs": [],
			"name": "getOwner",
			"outputs": [
				{
					"internalType": "address",
					"name": "",
					"type": "address"
				}
			],
			"payable": false,
			"stateMutability": "view",
			"type": "function",
			"signature": "0x893d20e8"
		},
		{
			"constant": true,
			"inputs": [
				{
					"internalType": "address",
					"name": "owner",
					"type": "address"
				},
				{
					"internalType": "address",
					"name": "operator",
					"type": "address"
				}
			],
			"name": "isApprovedForAll",
			"outputs": [
				{
					"internalType": "bool",
					"name": "",
					"type": "bool"
				}
			],
			"payable": false,
			"stateMutability": "view",
			"type": "function",
			"signature": "0xe985e9c5"
		},
		{
			"constant": true,
			"inputs": [],
			"name": "isOwner",
			"outputs": [
				{
					"internalType": "bool",
					"name": "",
					"type": "bool"
				}
			],
			"payable": false,
			"stateMutability": "view",
			"type": "function",
			"signature": "0x8f32d59b"
		},
		{
			"constant": false,
			"inputs": [
				{
					"internalType": "address",
					"name": "to",
					"type": "address"
				},
				{
					"internalType": "uint256",
					"name": "tokenId",
					"type": "uint256"
				}
			],
			"name": "mint",
			"outputs": [
				{
					"internalType": "bool",
					"name": "",
					"type": "bool"
				}
			],
			"payable": false,
			"stateMutability": "nonpayable",
			"type": "function",
			"signature": "0x40c10f19"
		},
		{
			"constant": true,
			"inputs": [],
			"name": "name",
			"outputs": [
				{
					"internalType": "string",
					"name": "",
					"type": "string"
				}
			],
			"payable": false,
			"stateMutability": "view",
			"type": "function",
			"signature": "0x06fdde03"
		},
		{
			"constant": true,
			"inputs": [
				{
					"internalType": "uint256",
					"name": "tokenId",
					"type": "uint256"
				}
			],
			"name": "ownerOf",
			"outputs": [
				{
					"internalType": "address",
					"name": "",
					"type": "address"
				}
			],
			"payable": false,
			"stateMutability": "view",
			"type": "function",
			"signature": "0x6352211e"
		},
		{
			"constant": false,
			"inputs": [],
			"name": "renounceOwnership",
			"outputs": [],
			"payable": false,
			"stateMutability": "nonpayable",
			"type": "function",
			"signature": "0x715018a6"
		},
		{
			"constant": false,
			"inputs": [
				{
					"internalType": "address",
					"name": "from",
					"type": "address"
				},
				{
					"internalType": "address",
					"name": "to",
					"type": "address"
				},
				{
					"internalType": "uint256",
					"name": "tokenId",
					"type": "uint256"
				}
			],
			"name": "safeTransferFrom",
			"outputs": [],
			"payable": false,
			"stateMutability": "nonpayable",
			"type": "function",
			"signature": "0x42842e0e"
		},
		{
			"constant": false,
			"inputs": [
				{
					"internalType": "address",
					"name": "from",
					"type": "address"
				},
				{
					"internalType": "address",
					"name": "to",
					"type": "address"
				},
				{
					"internalType": "uint256",
					"name": "tokenId",
					"type": "uint256"
				},
				{
					"internalType": "bytes",
					"name": "_data",
					"type": "bytes"
				}
			],
			"name": "safeTransferFrom",
			"outputs": [],
			"payable": false,
			"stateMutability": "nonpayable",
			"type": "function",
			"signature": "0xb88d4fde"
		},
		{
			"constant": false,
			"inputs": [
				{
					"internalType": "address",
					"name": "to",
					"type": "address"
				},
				{
					"internalType": "bool",
					"name": "approved",
					"type": "bool"
				}
			],
			"name": "setApprovalForAll",
			"outputs": [],
			"payable": false,
			"stateMutability": "nonpayable",
			"type": "function",
			"signature": "0xa22cb465"
		},
		{
			"constant": false,
			"inputs": [
				{
					"internalType": "bool",
					"name": "newValue",
					"type": "bool"
				}
			],
			"name": "setPaused",
			"outputs": [],
			"payable": false,
			"stateMutability": "nonpayable",
			"type": "function",
			"signature": "0x16c38b3c"
		},
		{
			"constant": true,
			"inputs": [
				{
					"internalType": "bytes4",
					"name": "interfaceId",
					"type": "bytes4"
				}
			],
			"name": "supportsInterface",
			"outputs": [
				{
					"internalType": "bool",
					"name": "",
					"type": "bool"
				}
			],
			"payable": false,
			"stateMutability": "view",
			"type": "function",
			"signature": "0x01ffc9a7"
		},
		{
			"constant": true,
			"inputs": [],
			"name": "symbol",
			"outputs": [
				{
					"internalType": "string",
					"name": "",
					"type": "string"
				}
			],
			"payable": false,
			"stateMutability": "view",
			"type": "function",
			"signature": "0x95d89b41"
		},
		{
			"constant": true,
			"inputs": [
				{
					"internalType": "uint256",
					"name": "index",
					"type": "uint256"
				}
			],
			"name": "tokenByIndex",
			"outputs": [
				{
					"internalType": "uint256",
					"name": "",
					"type": "uint256"
				}
			],
			"payable": false,
			"stateMutability": "view",
			"type": "function",
			"signature": "0x4f6ccce7"
		},
		{
			"constant": true,
			"inputs": [
				{
					"internalType": "address",
					"name": "owner",
					"type": "address"
				},
				{
					"internalType": "uint256",
					"name": "index",
					"type": "uint256"
				}
			],
			"name": "tokenOfOwnerByIndex",
			"outputs": [
				{
					"internalType": "uint256",
					"name": "",
					"type": "uint256"
				}
			],
			"payable": false,
			"stateMutability": "view",
			"type": "function",
			"signature": "0x2f745c59"
		},
		{
			"constant": true,
			"inputs": [
				{
					"internalType": "uint256",
					"name": "tokenId",
					"type": "uint256"
				}
			],
			"name": "tokenURI",
			"outputs": [
				{
					"internalType": "string",
					"name": "",
					"type": "string"
				}
			],
			"payable": false,
			"stateMutability": "view",
			"type": "function",
			"signature": "0xc87b56dd"
		},
		{
			"constant": true,
			"inputs": [],
			"name": "totalSupply",
			"outputs": [
				{
					"internalType": "uint256",
					"name": "",
					"type": "uint256"
				}
			],
			"payable": false,
			"stateMutability": "view",
			"type": "function",
			"signature": "0x18160ddd"
		},
		{
			"constant": false,
			"inputs": [
				{
					"internalType": "address",
					"name": "from",
					"type": "address"
				},
				{
					"internalType": "address",
					"name": "to",
					"type": "address"
				},
				{
					"internalType": "uint256",
					"name": "tokenId",
					"type": "uint256"
				}
			],
			"name": "transferFrom",
			"outputs": [],
			"payable": false,
			"stateMutability": "nonpayable",
			"type": "function",
			"signature": "0x23b872dd"
		},
		{
			"constant": false,
			"inputs": [
				{
					"internalType": "address payable",
					"name": "newOwner",
					"type": "address"
				}
			],
			"name": "transferOwnership",
			"outputs": [],
			"payable": false,
			"stateMutability": "nonpayable",
			"type": "function",
			"signature": "0xf2fde38b"
		},
		{
			"constant": false,
			"inputs": [
				{
					"internalType": "address",
					"name": "to",
					"type": "address"
				},
				{
					"internalType": "uint256[2]",
					"name": "a",
					"type": "uint256[2]"
				},
				{
					"internalType": "uint256[2][2]",
					"name": "b",
					"type": "uint256[2][2]"
				},
				{
					"internalType": "uint256[2]",
					"name": "c",
					"type": "uint256[2]"
				},
				{
					"internalType": "uint256[2]",
					"name": "input",
					"type": "uint256[2]"
				}
			],
			"name": "addSolution",
			"outputs": [],
			"payable": false,
			"stateMutability": "nonpayable",
			"type": "function",
			"signature": "0xea95deaf"
		},
		{
			"constant": false,
			"inputs": [
				{
					"internalType": "address",
					"name": "to",
					"type": "address"
				},
				{
					"internalType": "uint256",
					"name": "tokenId",
					"type": "uint256"
				},
				{
					"internalType": "uint256[2]",
					"name": "a",
					"type": "uint256[2]"
				},
				{
					"internalType": "uint256[2][2]",
					"name": "b",
					"type": "uint256[2][2]"
				},
				{
					"internalType": "uint256[2]",
					"name": "c",
					"type": "uint256[2]"
				},
				{
					"internalType": "uint256[2]",
					"name": "input",
					"type": "uint256[2]"
				}
			],
			"name": "mintNFT",
			"outputs": [],
			"payable": false,
			"stateMutability": "nonpayable",
			"type": "function",
			"signature": "0x5507dddc"
		}
	],
	"bytecode": "0x60e0604052603f6080818152906200286160a0398051620000299160139160209091019062000413565b503480156200003757600080fd5b50604051620028a0380380620028a0833981810160405260608110156200005d57600080fd5b8151602083018051604051929492938301929190846401000000008211156200008557600080fd5b9083019060208201858111156200009b57600080fd5b8251640100000000811182820188101715620000b657600080fd5b82525081516020918201929091019080838360005b83811015620000e5578181015183820152602001620000cb565b50505050905090810190601f168015620001135780820380516001836020036101000a031916815260200191505b50604052602001805160405193929190846401000000008211156200013757600080fd5b9083019060208201858111156200014d57600080fd5b82516401000000008111828201881017156200016857600080fd5b82525081516020918201929091019080838360005b83811015620001975781810151838201526020016200017d565b50505050905090810190601f168015620001c55780820380516001836020036101000a031916815260200191505b5060138054602060026001831615610100026000190190921691909104601f810182900482028401820160405280845288965087955086945085939291830182828015620002575780601f106200022b5761010080835404028352916020019162000257565b820191906000526020600020905b8154815290600101906020018083116200023957829003601f168201915b5050600080546001600160a01b03191633178082556040516001600160a01b039190911694509092507f5c486528ec3e3f0ea91181cff8116f02bfa350e03b8b6f12e00765adbb5af85c91508290a36000805460ff60a01b19169081905560408051600160a01b90920460ff16151582525133917fc39e7237bfff8744cf3c13bd4123d4542cd1803eebff9b19bb09ea990a48d93e919081900360200190a2620003116301ffc9a760e01b6001600160e01b03620003d316565b6200032c6380ac58cd60e01b6001600160e01b03620003d316565b6200034763780e9d6360e01b6001600160e01b03620003d316565b82516200035c90600f90602086019062000413565b5081516200037290601090602085019062000413565b5080516200038890601190602084019062000413565b50620003a4635b5e139f60e01b6001600160e01b03620003d316565b5050601480546001600160a01b0319166001600160a01b03979097169690961790955550620004b89350505050565b6001600160e01b03198082161415620003eb57600080fd5b6001600160e01b0319166000908152600160208190526040909120805460ff19169091179055565b828054600181600116156101000203166002900490600052602060002090601f016020900481019282601f106200045657805160ff191683800117855562000486565b8280016001018555821562000486579182015b828111156200048657825182559160200191906001019062000469565b506200049492915062000498565b5090565b620004b591905b808211156200049457600081556001016200049f565b90565b61239980620004c86000396000f3fe608060405234801561001057600080fd5b50600436106101b95760003560e01c80635507dddc116100f9578063a22cb46511610097578063d547cfb711610071578063d547cfb714610872578063e985e9c51461087a578063ea95deaf146108a8578063f2fde38b146109b2576101b9565b8063a22cb46514610761578063b88d4fde1461078f578063c87b56dd14610855576101b9565b8063715018a6116100d3578063715018a614610741578063893d20e8146107495780638f32d59b1461075157806395d89b4114610759576101b9565b80635507dddc146105f05780636352211e146106fe57806370a082311461071b576101b9565b806323b872dd1161016657806338bbfa501161014057806338bbfa501461043d57806340c10f191461057157806342842e0e1461059d5780634f6ccce7146105d3576101b9565b806323b872dd1461032e57806327dc297e146103645780632f745c5914610411576101b9565b8063095ea7b311610197578063095ea7b3146102c757806316c38b3c146102f557806318160ddd14610314576101b9565b806301ffc9a7146101be57806306fdde0314610211578063081812fc1461028e575b600080fd5b6101fd600480360360208110156101d457600080fd5b50357fffffffff00000000000000000000000000000000000000000000000000000000166109d8565b604080519115158252519081900360200190f35b610219610a13565b6040805160208082528351818301528351919283929083019185019080838360005b8381101561025357818101518382015260200161023b565b50505050905090810190601f1680156102805780820380516001836020036101000a031916815260200191505b509250505060405180910390f35b6102ab600480360360208110156102a457600080fd5b5035610aaa565b604080516001600160a01b039092168252519081900360200190f35b6102f3600480360360408110156102dd57600080fd5b506001600160a01b038135169060200135610ac5565b005b6102f36004803603602081101561030b57600080fd5b50351515610bda565b61031c610ca6565b60408051918252519081900360200190f35b6102f36004803603606081101561034457600080fd5b506001600160a01b03813581169160208101359091169060400135610cac565b6102f36004803603604081101561037a57600080fd5b8135919081019060408101602082013564010000000081111561039c57600080fd5b8201836020820111156103ae57600080fd5b803590602001918460018302840111640100000000831117156103d057600080fd5b91908080601f016020809104026020016040519081016040528093929190818152602001838380828437600092019190915250929550610ccf945050505050565b61031c6004803603604081101561042757600080fd5b506001600160a01b038135169060200135610cef565b6102f36004803603606081101561045357600080fd5b8135919081019060408101602082013564010000000081111561047557600080fd5b82018360208201111561048757600080fd5b803590602001918460018302840111640100000000831117156104a957600080fd5b91908080601f01602080910402602001604051908101604052809392919081815260200183838082843760009201919091525092959493602081019350359150506401000000008111156104fc57600080fd5b82018360208201111561050e57600080fd5b8035906020019184600183028401116401000000008311171561053057600080fd5b91908080601f016020809104026020016040519081016040528093929190818152602001838380828437600092019190915250929550610cca945050505050565b6101fd6004803603604081101561058757600080fd5b506001600160a01b038135169060200135610d3c565b6102f3600480360360608110156105b357600080fd5b506001600160a01b03813581169160208101359091169060400135610db3565b61031c600480360360208110156105e957600080fd5b5035610dce565b6102f3600480360361018081101561060757600080fd5b6040805180820182526001600160a01b03843516936020810135938101929091608083019180840190600290839083908082843760009201829052506040805180820190915293969594608081019493509150600290835b8282101561069d576040805180820182529080840286019060029083908390808284376000920191909152505050815260019091019060200161065f565b505060408051808201825293969594818101949350915060029083908390808284376000920191909152505060408051808201825292959493818101939250906002908390839080828437600092019190915250919450610e029350505050565b6102ab6004803603602081101561071457600080fd5b5035610e65565b61031c6004803603602081101561073157600080fd5b50356001600160a01b0316610e80565b6102f3610ea7565b6102ab610f4a565b6101fd610f59565b610219610f6a565b6102f36004803603604081101561077757600080fd5b506001600160a01b0381351690602001351515610fcb565b6102f3600480360360808110156107a557600080fd5b6001600160a01b038235811692602081013590911691604082013591908101906080810160608201356401000000008111156107e057600080fd5b8201836020820111156107f257600080fd5b8035906020019184600183028401116401000000008311171561081457600080fd5b91908080601f01602080910402602001604051908101604052809392919081815260200183838082843760009201919091525092955061104f945050505050565b6102196004803603602081101561086b57600080fd5b5035611075565b610219611128565b6101fd6004803603604081101561089057600080fd5b506001600160a01b0381358116916020013516611189565b6102f360048036036101608110156108bf57600080fd5b6040805180820182526001600160a01b038435169392830192916060830191906020840190600290839083908082843760009201829052506040805180820190915293969594608081019493509150600290835b828210156109515760408051808201825290808402860190600290839083908082843760009201919091525050508152600190910190602001610913565b5050604080518082018252939695948181019493509150600290839083908082843760009201919091525050604080518082018252929594938181019392509060029083908390808284376000920191909152509194506111b79350505050565b6102f3600480360360208110156109c857600080fd5b50356001600160a01b03166114dd565b7fffffffff00000000000000000000000000000000000000000000000000000000811660009081526001602052604090205460ff165b919050565b600f8054604080516020601f6002600019610100600188161502019095169490940493840181900481028201810190925282815260609390929091830182828015610a9f5780601f10610a7457610100808354040283529160200191610a9f565b820191906000526020600020905b815481529060010190602001808311610a8257829003601f168201915b505050505090505b90565b6000908152600360205260409020546001600160a01b031690565b6000818152600260205260409020546001600160a01b0383811691161415610b1e5760405162461bcd60e51b81526004018080602001828103825260228152602001806123436022913960400191505060405180910390fd5b6000818152600260205260409020546001600160a01b03163314610b735760405162461bcd60e51b815260040180806020018281038252602981526020018061231a6029913960400191505060405180910390fd5b600081815260036020908152604080832080546001600160a01b0319166001600160a01b038781169182179092556002909352818420549151859492909116917f8c5be1e5ebec7d5bd14f71427d1e84f3dd0314c0f7b2291e5b200ac8c7c3b92591a45050565b60005460ff600160a01b9091041615158115151415610c2a5760405162461bcd60e51b81526004018080602001828103825260218152602001806122f96021913960400191505060405180910390fd5b60008054821515600160a01b9081027fffffffffffffffffffffff00ffffffffffffffffffffffffffffffffffffffff9092169190911791829055604080519190920460ff1615158152905133917fc39e7237bfff8744cf3c13bd4123d4542cd1803eebff9b19bb09ea990a48d93e919081900360200190a250565b60085490565b610cb63382611542565b610cbf57600080fd5b610cca8383836115a1565b505050565b604080516000815260208101909152610ceb9083908390610cca565b5050565b6000610cfa83610e80565b8210610d0557600080fd5b6001600160a01b0383166000908152600660205260409020805483908110610d2957fe5b9060005260206000200154905092915050565b6000610d46610f59565b610d97576040805162461bcd60e51b815260206004820152601760248201527f43616c6c6572206973206e6f7420746865206f776e6572000000000000000000604482015290519081900360640190fd5b610da183836115c0565b610daa826115dd565b50600192915050565b610cca8383836040518060200160405280600081525061104f565b6000610dd8610ca6565b8210610de357600080fd5b60088281548110610df057fe5b90600052602060002001549050919050565b610e0f86858585856111b7565b610e198686610d3c565b50604080518681526001600160a01b038816602082015281517fcae919fa60d0c9867c5b3e0a9529934bca78c09d353736e3327f74837594adc5929181900390910190a1505050505050565b6000908152600260205260409020546001600160a01b031690565b6001600160a01b0381166000908152600460205260408120610ea1906116b2565b92915050565b610eaf610f59565b610f00576040805162461bcd60e51b815260206004820152601760248201527f43616c6c6572206973206e6f7420746865206f776e6572000000000000000000604482015290519081900360640190fd5b600080546040516001600160a01b03909116907f5c486528ec3e3f0ea91181cff8116f02bfa350e03b8b6f12e00765adbb5af85c908390a3600080546001600160a01b0319169055565b6000546001600160a01b031690565b6000546001600160a01b0316331490565b60108054604080516020601f6002600019610100600188161502019095169490940493840181900481028201810190925282815260609390929091830182828015610a9f5780601f10610a7457610100808354040283529160200191610a9f565b6001600160a01b038216331415610fe157600080fd5b3360008181526005602090815260408083206001600160a01b03871680855290835292819020805460ff1916861515908117909155815190815290519293927f17307eab39ab6107e8899845ad3d59bd9653f200f220920489ca2b5937696c31929181900390910190a35050565b61105a848484610cac565b611066848484846116b6565b61106f57600080fd5b50505050565b606061108082611801565b61108957600080fd5b60008281526012602090815260409182902080548351601f60026000196101006001861615020190931692909204918201849004840281018401909452808452909183018282801561111c5780601f106110f15761010080835404028352916020019161111c565b820191906000526020600020905b8154815290600101906020018083116110ff57829003601f168201915b50505050509050919050565b60118054604080516020601f6002600019610100600188161502019095169490940493840181900481028201810190925282815260609390929091830182828015610a9f5780601f10610a7457610100808354040283529160200191610a9f565b6001600160a01b03918216600090815260056020908152604080832093909416825291909152205460ff1690565b6111c38484848461181e565b611214576040805162461bcd60e51b815260206004820152601660248201527f536f6c7574696f6e20616c726561647920657869737400000000000000000000604482015290519081900360640190fd5b601454604080517f621e9ec00000000000000000000000000000000000000000000000000000000081526001600160a01b039092169163621e9ec09187918791879187916004909101908190869080838360005b83811015611280578181015183820152602001611268565b505050509050018460026000925b818410156112ce5760208402830151604080838360005b838110156112bd5781810151838201526020016112a5565b50505050905001926001019261128e565b9250505083600260200280838360005b838110156112f65781810151838201526020016112de565b5050505090500182600260200280838360005b83811015611321578181015183820152602001611309565b50505050905001945050505050602060405180830381600087803b15801561134857600080fd5b505af115801561135c573d6000803e3d6000fd5b505050506040513d602081101561137257600080fd5b50516113c5576040805162461bcd60e51b815260206004820152601260248201527f536f6c7574696f6e206e6f742076616c69640000000000000000000000000000604482015290519081900360640190fd5b60006113d38585858561185f565b6040805180820182528281526001600160a01b03808a16602080840182815260158054600181810183556000928352965160029091027f55f448fdea98c4d29eb340757ef0a66cd03dbb9538908a6a81d96026b71ec47581019190915591517f55f448fdea98c4d29eb340757ef0a66cd03dbb9538908a6a81d96026b71ec47690920180549286166001600160a01b0319938416179055865180880188528881528084018581528983526016855291889020905181559051950180549590941694169390931790915582518481529182015281519293507f078793128cefb19aac38a33f9e5df39f67716907f6d747e8065545699e0b2b8d929081900390910190a1505050505050565b6114e5610f59565b611536576040805162461bcd60e51b815260206004820152601760248201527f43616c6c6572206973206e6f7420746865206f776e6572000000000000000000604482015290519081900360640190fd5b61153f81611961565b50565b60008061154e83610e65565b9050806001600160a01b0316846001600160a01b031614806115895750836001600160a01b031661157e84610aaa565b6001600160a01b0316145b8061159957506115998185611189565b949350505050565b6115ac838383611a17565b6115b68382611af7565b610cca8282611bec565b6115ca8282611c2a565b6115d48282611bec565b610ceb81611d5b565b6115e681611801565b6115ef57600080fd5b60118054604080516020601f6002600019610100600188161502019095169490940493840181900481028201810190925282815261168f939092909183018282801561167c5780601f106116515761010080835404028352916020019161167c565b820191906000526020600020905b81548152906001019060200180831161165f57829003601f168201915b505050505061168a83611d9f565b611e7c565b60008281526012602090815260409091208251610ceb9391929190910190612240565b5490565b60006116ca846001600160a01b0316611ebf565b6116d657506001611599565b604051630a85bd0160e11b815233600482018181526001600160a01b03888116602485015260448401879052608060648501908152865160848601528651600095928a169463150b7a029490938c938b938b939260a4019060208501908083838e5b83811015611750578181015183820152602001611738565b50505050905090810190601f16801561177d5780820380516001836020036101000a031916815260200191505b5095505050505050602060405180830381600087803b15801561179f57600080fd5b505af11580156117b3573d6000803e3d6000fd5b505050506040513d60208110156117c957600080fd5b50517fffffffff0000000000000000000000000000000000000000000000000000000016630a85bd0160e11b14915050949350505050565b6000908152600260205260409020546001600160a01b0316151590565b6000808061182e8787878761185f565b6000818152601660205260409020600101549091506001600160a01b031661185557600191505b5095945050505050565b6000848484846040516020018085600260200280838360005b83811015611890578181015183820152602001611878565b505050509050018460026000925b818410156118de5760208402830151604080838360005b838110156118cd5781810151838201526020016118b5565b50505050905001926001019261189e565b9250505083600260200280838360005b838110156119065781810151838201526020016118ee565b5050505090500182600260200280838360005b83811015611931578181015183820152602001611919565b505050509050019450505050506040516020818303038152906040528051906020012060001c9050949350505050565b6001600160a01b0381166119bc576040805162461bcd60e51b815260206004820152601060248201527f4e65772061646472657373206e756c6c00000000000000000000000000000000604482015290519081900360640190fd5b600080546040516001600160a01b03808516939216917f5c486528ec3e3f0ea91181cff8116f02bfa350e03b8b6f12e00765adbb5af85c91a3600080546001600160a01b0319166001600160a01b0392909216919091179055565b826001600160a01b0316611a2a82610e65565b6001600160a01b031614611a3d57600080fd5b6001600160a01b038216611a5057600080fd5b611a5981611ef8565b6001600160a01b0383166000908152600460205260409020611a7a90611f33565b6001600160a01b0382166000908152600460205260409020611a9b90611f4a565b60008181526002602052604080822080546001600160a01b0319166001600160a01b0386811691821790925591518493918716917fddf252ad1be2c89b69c2b068fc378daa952ba7f163c4a11628f55a4df523b3ef91a4505050565b6001600160a01b038216600090815260066020526040812054611b2190600163ffffffff611f5316565b600083815260076020526040902054909150808214611bbc576001600160a01b0384166000908152600660205260408120805484908110611b5e57fe5b906000526020600020015490508060066000876001600160a01b03166001600160a01b031681526020019081526020016000208381548110611b9c57fe5b600091825260208083209091019290925591825260079052604090208190555b6001600160a01b0384166000908152600660205260409020805490611be59060001983016122be565b5050505050565b6001600160a01b0390911660009081526006602081815260408084208054868652600784529185208290559282526001810183559183529091200155565b6001600160a01b038216611c85576040805162461bcd60e51b815260206004820152600f60248201527f496e76616c696420616464726573730000000000000000000000000000000000604482015290519081900360640190fd5b611c8e81611801565b15611ce0576040805162461bcd60e51b815260206004820152601560248201527f546f6b656e496420616c72656164792065786973740000000000000000000000604482015290519081900360640190fd5b600081815260026020908152604080832080546001600160a01b0319166001600160a01b038716908117909155835260049091529020611d1f90611f4a565b60405181906001600160a01b038416906000907fddf252ad1be2c89b69c2b068fc378daa952ba7f163c4a11628f55a4df523b3ef908290a45050565b600880546000838152600960205260408120829055600182018355919091527ff3f7a9fe364faab93b216da50a3214154f22a0a2b415b23a84c8169e8b636ee30155565b606081611de0575060408051808201909152600181527f30000000000000000000000000000000000000000000000000000000000000006020820152610a0e565b8160005b8115611df857600101600a82049150611de4565b6060816040519080825280601f01601f191660200182016040528015611e25576020820181803883390190505b50905060001982015b8515611e7357600a860660300160f81b82828060019003935081518110611e5157fe5b60200101906001600160f81b031916908160001a905350600a86049550611e2e565b50949350505050565b6060611eb88383604051806020016040528060008152506040518060200160405280600081525060405180602001604052806000815250611f95565b9392505050565b6000813f7fc5d2460186f7233c927e7db2dcc703c0e500b653ca82273b7bfad8045d85a470818114801590611599575050151592915050565b6000818152600360205260409020546001600160a01b03161561153f57600090815260036020526040902080546001600160a01b0319169055565b8054611f4690600163ffffffff611f5316565b9055565b80546001019055565b6000611eb883836040518060400160405280601e81526020017f536166654d6174683a207375627472616374696f6e206f766572666c6f7700008152506121a9565b6060808690506060869050606086905060608690506060869050606081518351855187518951010101016040519080825280601f01601f191660200182016040528015611fe9576020820181803883390190505b509050806000805b88518110156120425788818151811061200657fe5b602001015160f81c60f81b83838060010194508151811061202357fe5b60200101906001600160f81b031916908160001a905350600101611ff1565b5060005b87518110156120975787818151811061205b57fe5b602001015160f81c60f81b83838060010194508151811061207857fe5b60200101906001600160f81b031916908160001a905350600101612046565b5060005b86518110156120ec578681815181106120b057fe5b602001015160f81c60f81b8383806001019450815181106120cd57fe5b60200101906001600160f81b031916908160001a90535060010161209b565b5060005b85518110156121415785818151811061210557fe5b602001015160f81c60f81b83838060010194508151811061212257fe5b60200101906001600160f81b031916908160001a9053506001016120f0565b5060005b84518110156121965784818151811061215a57fe5b602001015160f81c60f81b83838060010194508151811061217757fe5b60200101906001600160f81b031916908160001a905350600101612145565b50909d9c50505050505050505050505050565b600081848411156122385760405162461bcd60e51b81526004018080602001828103825283818151815260200191508051906020019080838360005b838110156121fd5781810151838201526020016121e5565b50505050905090810190601f16801561222a5780820380516001836020036101000a031916815260200191505b509250505060405180910390fd5b505050900390565b828054600181600116156101000203166002900490600052602060002090601f016020900481019282601f1061228157805160ff19168380011785556122ae565b828001600101855582156122ae579182015b828111156122ae578251825591602001919060010190612293565b506122ba9291506122de565b5090565b815481835581811115610cca57600083815260209020610cca9181019083015b610aa791905b808211156122ba57600081556001016122e456fe4e6577207061757365642076616c756520616c72656164792061737369676e656453656e6465722061646472657373206e6f7420746865206f776e6572206f662074686520746f6b656e5472616e73666572206164647265737320616c726561647920746865206f776e6572a265627a7a72315820c72ce1859d46cf59d4149a4801e1a8913a68355d58e9a76a723a2dbfc4252d4364736f6c6343000511003268747470733a2f2f73332d75732d776573742d322e616d617a6f6e6177732e636f6d2f756461636974792d626c6f636b636861696e2f63617073746f6e652f",
	"source": "pragma solidity >0.5.0;\n\nimport './ERC721Mintable.sol';\n\n// DONE define another contract named SolnSquareVerifier that inherits from your ERC721Mintable class\ncontract SolnSquareVerifier is MyCustomERC721Token {\n\n    // Data contract\n    VerifierInterface verifierInterface;\n\n    // DONE define a solutions struct that can hold an index & an address\n    struct Solution {\n        uint256 index;\n        address solutionAddress;\n    }\n\n    // DONE define an array of the above struct\n    Solution[] solutions;\n\n    // DONE define a mapping to store unique solutions submitted\n    mapping(uint256 => Solution) private uniqueSubmittedSolutions;\n\n    // DONE Create an event to emit when a solution is added\n    event SolutionAdded(uint256 solutionIndex, address solutionAddress);\n\n    // Event to inform about a token was mint\n    event TokenMint(uint256 tokenId, address to);\n\n    constructor(address verifierAddress, string memory name, string memory symbol) MyCustomERC721Token(name, symbol) public {\n        verifierInterface = VerifierInterface(verifierAddress);\n    }\n\n    // DONE Create a function to add the solutions to the array and emit the event\n    function addSolution\n    (\n        address to,\n        uint[2] memory a,\n        uint[2][2] memory b,\n        uint[2] memory c,\n        uint[2] memory input\n    )\n        public\n    {\n        // Check if solution already exist\n        require(isUniqueSolution(a, b, c, input), 'Solution already exist');\n\n        // Check if solution is valid\n        require(verifierInterface.verifyTx(a, b, c, input), \"Solution not valid\");\n\n        // Calculate the hash of the solution which will be the index in the mapping\n        uint256 indexHash = calculateHashIndexOfSolution(a, b, c, input);\n\n        // Add solution to the array\n        solutions.push(Solution({index: indexHash, solutionAddress: to}));\n\n        // add solution to mapping\n        uniqueSubmittedSolutions[indexHash] = Solution({index: indexHash, solutionAddress: to});\n\n        // Emit proper event\n        emit SolutionAdded(indexHash, to);\n    }\n\n    // DONE Create a function to mint new NFT only after the solution has been verified\n    //  - make sure the solution is unique (has not been used before)\n    //  - make sure you handle metadata as well as tokenSuplly\n    function mintNFT\n    (\n        address to,\n        uint256 tokenId,\n        uint[2] memory a,\n        uint[2][2] memory b,\n        uint[2] memory c,\n        uint[2] memory input\n    )\n        public\n    {\n        // Add solution to the array and mapping. In addSolution there are verify solution check and unique solution check\n        addSolution(to, a, b, c, input);\n\n        // Mint the token. Metadata are managed inside mint function\n        super.mint(to, tokenId);\n\n        // Emit proper event\n        emit TokenMint(tokenId, to);\n    }\n\n\n    function isUniqueSolution\n    (\n        uint[2] memory a,\n        uint[2][2] memory b,\n        uint[2] memory c,\n        uint[2] memory input\n    )\n        private\n        view\n        returns(bool)\n    {\n        bool isUnique = false;\n        uint256 indexHash = calculateHashIndexOfSolution(a, b, c, input);\n        if (uniqueSubmittedSolutions[indexHash].solutionAddress == address(0)) {\n            isUnique = true;\n        }\n        return isUnique;\n    }\n\n    function calculateHashIndexOfSolution\n    (\n        uint[2] memory a,\n        uint[2][2] memory b,\n        uint[2] memory c,\n        uint[2] memory input\n    )\n        private\n        pure\n        returns (uint256)\n    {\n        return uint256(keccak256(abi.encodePacked(a, b, c, input)));\n    }\n}\n\n// DONE define a contract call to the zokrates generated solidity contract <Verifier> or <renamedVerifier>\n// ABI\ncontract VerifierInterface {\n    function verifyTx(\n        uint[2] memory,\n        uint[2][2] memory,\n        uint[2] memory,\n        uint[2] memory\n    ) public returns (bool);\n}",
	"sourcePath": "/Users/bilalcagiran/Udacity/BD/Blockchain-Capstone/eth-contracts/contracts/SolnSquareVerifier.sol",
	"compiler": {
		"name": "solc",
		"version": "0.5.17+commit.d19bba13.Emscripten.clang"
	},
	"schemaVersion": "3.0.23",
	"updatedAt": "2020-04-13T02:04:20.809Z",
	"networkType": "ethereum",
	"devdoc": {
		"methods": {
			"baseTokenURI()": {
				"details": "Gets the token baseTokenURI",
				"return": "string representing the token baseTokenURI"
			},
			"isApprovedForAll(address,address)": {
				"details": "Tells whether an operator is approved by a given owner",
				"params": {
					"operator": "operator address which you want to query the approval of",
					"owner": "owner address which you want to query the approval of"
				},
				"return": "bool whether the given operator is approved by the given owner"
			},
			"name()": {
				"details": "Gets the token name",
				"return": "string representing the token name"
			},
			"setApprovalForAll(address,bool)": {
				"details": "Sets or unsets the approval of a given operator An operator is allowed to transfer all tokens of the sender on their behalf",
				"params": {
					"approved": "representing the status of the approval to be set",
					"to": "operator address to set the approval"
				}
			},
			"supportsInterface(bytes4)": {
				"details": "implement supportsInterface(bytes4) using a lookup table"
			},
			"symbol()": {
				"details": "Gets the token symbol",
				"return": "string representing the token symbol"
			},
			"tokenByIndex(uint256)": {
				"details": "Gets the token ID at a given index of all the tokens in this contract Reverts if the index is greater or equal to the total number of tokens",
				"params": {
					"index": "uint256 representing the index to be accessed of the tokens list"
				},
				"return": "uint256 token ID at the given index of the tokens list"
			},
			"tokenOfOwnerByIndex(address,uint256)": {
				"details": "Gets the token ID at a given index of the tokens list of the requested owner",
				"params": {
					"index": "uint256 representing the index to be accessed of the requested tokens list",
					"owner": "address owning the tokens list to be accessed"
				},
				"return": "uint256 token ID at the given index of the tokens list owned by the requested address"
			},
			"totalSupply()": {
				"details": "Gets the total amount of tokens stored by the contract",
				"return": "uint256 representing the total amount of tokens"
			}
		}
	},
	"userdoc": {
		"methods": {}
	},
	"timeoutBlocks": 0,
	"numberFormat": "BN"
}